{
  "_format": "hh-sol-artifact-1",
  "contractName": "Crowdfunding",
  "sourceName": "contracts/Crowdfunding.sol",
  "abi": [
    {
      "inputs": [],
      "stateMutability": "nonpayable",
      "type": "constructor"
    },
    {
      "anonymous": false,
      "inputs": [
        {
          "indexed": false,
          "internalType": "uint256",
          "name": "campaignId",
          "type": "uint256"
        },
        {
          "indexed": false,
          "internalType": "uint256",
          "name": "totalFunds",
          "type": "uint256"
        }
      ],
      "name": "CampaignCompleted",
      "type": "event"
    },
    {
      "anonymous": false,
      "inputs": [
        {
          "indexed": false,
          "internalType": "uint256",
          "name": "campaignId",
          "type": "uint256"
        },
        {
          "indexed": false,
          "internalType": "string",
          "name": "title",
          "type": "string"
        },
        {
          "indexed": true,
          "internalType": "address",
          "name": "owner",
          "type": "address"
        },
        {
          "indexed": false,
          "internalType": "uint256",
          "name": "goal",
          "type": "uint256"
        }
      ],
      "name": "CampaignCreated",
      "type": "event"
    },
    {
      "anonymous": false,
      "inputs": [
        {
          "indexed": false,
          "internalType": "uint256",
          "name": "campaignId",
          "type": "uint256"
        },
        {
          "indexed": true,
          "internalType": "address",
          "name": "contributor",
          "type": "address"
        },
        {
          "indexed": false,
          "internalType": "uint256",
          "name": "amount",
          "type": "uint256"
        }
      ],
      "name": "Funded",
      "type": "event"
    },
    {
      "inputs": [],
      "name": "campaignCounter",
      "outputs": [
        {
          "internalType": "uint256",
          "name": "",
          "type": "uint256"
        }
      ],
      "stateMutability": "view",
      "type": "function"
    },
    {
      "inputs": [
        {
          "internalType": "uint256",
          "name": "",
          "type": "uint256"
        }
      ],
      "name": "campaigns",
      "outputs": [
        {
          "internalType": "uint256",
          "name": "id",
          "type": "uint256"
        },
        {
          "internalType": "string",
          "name": "title",
          "type": "string"
        },
        {
          "internalType": "string",
          "name": "description",
          "type": "string"
        },
        {
          "internalType": "address",
          "name": "owner",
          "type": "address"
        },
        {
          "internalType": "uint256",
          "name": "goal",
          "type": "uint256"
        },
        {
          "internalType": "uint256",
          "name": "fundsRaised",
          "type": "uint256"
        },
        {
          "internalType": "bool",
          "name": "isCompleted",
          "type": "bool"
        }
      ],
      "stateMutability": "view",
      "type": "function"
    },
    {
      "inputs": [
        {
          "internalType": "uint256",
          "name": "campaignId",
          "type": "uint256"
        }
      ],
      "name": "completeCampaign",
      "outputs": [],
      "stateMutability": "nonpayable",
      "type": "function"
    },
    {
      "inputs": [
        {
          "internalType": "uint256",
          "name": "campaignId",
          "type": "uint256"
        }
      ],
      "name": "contribute",
      "outputs": [],
      "stateMutability": "payable",
      "type": "function"
    },
    {
      "inputs": [
        {
          "internalType": "uint256",
          "name": "",
          "type": "uint256"
        },
        {
          "internalType": "address",
          "name": "",
          "type": "address"
        }
      ],
      "name": "contributions",
      "outputs": [
        {
          "internalType": "uint256",
          "name": "",
          "type": "uint256"
        }
      ],
      "stateMutability": "view",
      "type": "function"
    },
    {
      "inputs": [
        {
          "internalType": "string",
          "name": "_title",
          "type": "string"
        },
        {
          "internalType": "string",
          "name": "_description",
          "type": "string"
        },
        {
          "internalType": "uint256",
          "name": "_goal",
          "type": "uint256"
        }
      ],
      "name": "createCampaign",
      "outputs": [],
      "stateMutability": "nonpayable",
      "type": "function"
    },
    {
      "inputs": [],
      "name": "platformOwner",
      "outputs": [
        {
          "internalType": "address",
          "name": "",
          "type": "address"
        }
      ],
      "stateMutability": "view",
      "type": "function"
    }
  ],
  "bytecode": "0x6080604052348015600f57600080fd5b50336000806101000a81548173ffffffffffffffffffffffffffffffffffffffff021916908373ffffffffffffffffffffffffffffffffffffffff1602179055506115398061005f6000396000f3fe6080604052600436106100705760003560e01c80639553f1801161004e5780639553f18014610120578063c1cbbca714610149578063fca604d714610165578063ffa56a571461019057610070565b8063141961bc146100755780633d891f59146100b85780634df8ccb1146100f5575b600080fd5b34801561008157600080fd5b5061009c60048036038101906100979190610a12565b6101b9565b6040516100af9796959493929190610b3a565b60405180910390f35b3480156100c457600080fd5b506100df60048036038101906100da9190610be3565b610338565b6040516100ec9190610c23565b60405180910390f35b34801561010157600080fd5b5061010a61035d565b6040516101179190610c3e565b60405180910390f35b34801561012c57600080fd5b5061014760048036038101906101429190610a12565b610381565b005b610163600480360381019061015e9190610a12565b610620565b005b34801561017157600080fd5b5061017a6107f6565b6040516101879190610c23565b60405180910390f35b34801561019c57600080fd5b506101b760048036038101906101b29190610d8e565b6107fc565b005b60026020528060005260406000206000915090508060000154908060010180546101e290610e48565b80601f016020809104026020016040519081016040528092919081815260200182805461020e90610e48565b801561025b5780601f106102305761010080835404028352916020019161025b565b820191906000526020600020905b81548152906001019060200180831161023e57829003601f168201915b50505050509080600201805461027090610e48565b80601f016020809104026020016040519081016040528092919081815260200182805461029c90610e48565b80156102e95780601f106102be576101008083540402835291602001916102e9565b820191906000526020600020905b8154815290600101906020018083116102cc57829003601f168201915b5050505050908060030160009054906101000a900473ffffffffffffffffffffffffffffffffffffffff16908060040154908060050154908060060160009054906101000a900460ff16905087565b6003602052816000526040600020602052806000526040600020600091509150505481565b60008054906101000a900473ffffffffffffffffffffffffffffffffffffffff1681565b8060015481106103c6576040517f08c379a00000000000000000000000000000000000000000000000000000000081526004016103bd90610ec5565b60405180910390fd5b813373ffffffffffffffffffffffffffffffffffffffff166002600083815260200190815260200160002060030160009054906101000a900473ffffffffffffffffffffffffffffffffffffffff1673ffffffffffffffffffffffffffffffffffffffff161461046b576040517f08c379a000000000000000000000000000000000000000000000000000000000815260040161046290610f57565b60405180910390fd5b826002600082815260200190815260200160002060060160009054906101000a900460ff16156104d0576040517f08c379a00000000000000000000000000000000000000000000000000000000081526004016104c790610fc3565b60405180910390fd5b60026000858152602001908152602001600020600401546002600086815260200190815260200160002060050154101561053f576040517f08c379a00000000000000000000000000000000000000000000000000000000081526004016105369061102f565b60405180910390fd5b60016002600086815260200190815260200160002060060160006101000a81548160ff0219169083151502179055503373ffffffffffffffffffffffffffffffffffffffff166108fc60026000878152602001908152602001600020600501549081150290604051600060405180830381858888f193505050501580156105ca573d6000803e3d6000fd5b507f562099c771af1034e0fa4d272eeb12a622c0e7b284ff68212cc5ddd2c1b77d3484600260008781526020019081526020016000206005015460405161061292919061104f565b60405180910390a150505050565b806001548110610665576040517f08c379a000000000000000000000000000000000000000000000000000000000815260040161065c90610ec5565b60405180910390fd5b816002600082815260200190815260200160002060060160009054906101000a900460ff16156106ca576040517f08c379a00000000000000000000000000000000000000000000000000000000081526004016106c190610fc3565b60405180910390fd5b6000341161070d576040517f08c379a0000000000000000000000000000000000000000000000000000000008152600401610704906110ea565b60405180910390fd5b346002600085815260200190815260200160002060050160008282546107339190611139565b92505081905550346003600085815260200190815260200160002060003373ffffffffffffffffffffffffffffffffffffffff1673ffffffffffffffffffffffffffffffffffffffff168152602001908152602001600020600082825461079a9190611139565b925050819055503373ffffffffffffffffffffffffffffffffffffffff167f38c48552690c96ec2872092ac1db6c19fb59f5a8c5b49bbf41ed4886d0ca692684346040516107e992919061104f565b60405180910390a2505050565b60015481565b6000811161083f576040517f08c379a0000000000000000000000000000000000000000000000000000000008152600401610836906111df565b60405180910390fd5b6040518060e0016040528060015481526020018481526020018381526020013373ffffffffffffffffffffffffffffffffffffffff16815260200182815260200160008152602001600015158152506002600060015481526020019081526020016000206000820151816000015560208201518160010190816108c291906113ab565b5060408201518160020190816108d891906113ab565b5060608201518160030160006101000a81548173ffffffffffffffffffffffffffffffffffffffff021916908373ffffffffffffffffffffffffffffffffffffffff1602179055506080820151816004015560a0820151816005015560c08201518160060160006101000a81548160ff0219169083151502179055509050503373ffffffffffffffffffffffffffffffffffffffff167f85d038f2d0b3728e5fede2ce367934666edeabb735999e2be302dc035466b98b60015485846040516109a39392919061147d565b60405180910390a2600160008154809291906109be906114bb565b9190505550505050565b6000604051905090565b600080fd5b600080fd5b6000819050919050565b6109ef816109dc565b81146109fa57600080fd5b50565b600081359050610a0c816109e6565b92915050565b600060208284031215610a2857610a276109d2565b5b6000610a36848285016109fd565b91505092915050565b610a48816109dc565b82525050565b600081519050919050565b600082825260208201905092915050565b60005b83811015610a88578082015181840152602081019050610a6d565b60008484015250505050565b6000601f19601f8301169050919050565b6000610ab082610a4e565b610aba8185610a59565b9350610aca818560208601610a6a565b610ad381610a94565b840191505092915050565b600073ffffffffffffffffffffffffffffffffffffffff82169050919050565b6000610b0982610ade565b9050919050565b610b1981610afe565b82525050565b60008115159050919050565b610b3481610b1f565b82525050565b600060e082019050610b4f600083018a610a3f565b8181036020830152610b618189610aa5565b90508181036040830152610b758188610aa5565b9050610b846060830187610b10565b610b916080830186610a3f565b610b9e60a0830185610a3f565b610bab60c0830184610b2b565b98975050505050505050565b610bc081610afe565b8114610bcb57600080fd5b50565b600081359050610bdd81610bb7565b92915050565b60008060408385031215610bfa57610bf96109d2565b5b6000610c08858286016109fd565b9250506020610c1985828601610bce565b9150509250929050565b6000602082019050610c386000830184610a3f565b92915050565b6000602082019050610c536000830184610b10565b92915050565b600080fd5b600080fd5b7f4e487b7100000000000000000000000000000000000000000000000000000000600052604160045260246000fd5b610c9b82610a94565b810181811067ffffffffffffffff82111715610cba57610cb9610c63565b5b80604052505050565b6000610ccd6109c8565b9050610cd98282610c92565b919050565b600067ffffffffffffffff821115610cf957610cf8610c63565b5b610d0282610a94565b9050602081019050919050565b82818337600083830152505050565b6000610d31610d2c84610cde565b610cc3565b905082815260208101848484011115610d4d57610d4c610c5e565b5b610d58848285610d0f565b509392505050565b600082601f830112610d7557610d74610c59565b5b8135610d85848260208601610d1e565b91505092915050565b600080600060608486031215610da757610da66109d2565b5b600084013567ffffffffffffffff811115610dc557610dc46109d7565b5b610dd186828701610d60565b935050602084013567ffffffffffffffff811115610df257610df16109d7565b5b610dfe86828701610d60565b9250506040610e0f868287016109fd565b9150509250925092565b7f4e487b7100000000000000000000000000000000000000000000000000000000600052602260045260246000fd5b60006002820490506001821680610e6057607f821691505b602082108103610e7357610e72610e19565b5b50919050565b7f43616d706169676e20646f6573206e6f74206578697374000000000000000000600082015250565b6000610eaf601783610a59565b9150610eba82610e79565b602082019050919050565b60006020820190508181036000830152610ede81610ea2565b9050919050565b7f4f6e6c792063616d706169676e206f776e65722063616e20706572666f726d2060008201527f7468697320616374696f6e000000000000000000000000000000000000000000602082015250565b6000610f41602b83610a59565b9150610f4c82610ee5565b604082019050919050565b60006020820190508181036000830152610f7081610f34565b9050919050565b7f43616d706169676e20697320616c726561647920636f6d706c65746564000000600082015250565b6000610fad601d83610a59565b9150610fb882610f77565b602082019050919050565b60006020820190508181036000830152610fdc81610fa0565b9050919050565b7f46756e64696e6720676f616c206e6f7420726561636865640000000000000000600082015250565b6000611019601883610a59565b915061102482610fe3565b602082019050919050565b600060208201905081810360008301526110488161100c565b9050919050565b60006040820190506110646000830185610a3f565b6110716020830184610a3f565b9392505050565b7f436f6e747269627574696f6e206d75737420626520677265617465722074686160008201527f6e207a65726f0000000000000000000000000000000000000000000000000000602082015250565b60006110d4602683610a59565b91506110df82611078565b604082019050919050565b60006020820190508181036000830152611103816110c7565b9050919050565b7f4e487b7100000000000000000000000000000000000000000000000000000000600052601160045260246000fd5b6000611144826109dc565b915061114f836109dc565b92508282019050808211156111675761116661110a565b5b92915050565b7f46756e64696e6720676f616c206d75737420626520677265617465722074686160008201527f6e207a65726f0000000000000000000000000000000000000000000000000000602082015250565b60006111c9602683610a59565b91506111d48261116d565b604082019050919050565b600060208201905081810360008301526111f8816111bc565b9050919050565b60008190508160005260206000209050919050565b60006020601f8301049050919050565b600082821b905092915050565b6000600883026112617fffffffffffffffffffffffffffffffffffffffffffffffffffffffffffffffff82611224565b61126b8683611224565b95508019841693508086168417925050509392505050565b6000819050919050565b60006112a86112a361129e846109dc565b611283565b6109dc565b9050919050565b6000819050919050565b6112c28361128d565b6112d66112ce826112af565b848454611231565b825550505050565b600090565b6112eb6112de565b6112f68184846112b9565b505050565b5b8181101561131a5761130f6000826112e3565b6001810190506112fc565b5050565b601f82111561135f57611330816111ff565b61133984611214565b81016020851015611348578190505b61135c61135485611214565b8301826112fb565b50505b505050565b600082821c905092915050565b600061138260001984600802611364565b1980831691505092915050565b600061139b8383611371565b9150826002028217905092915050565b6113b482610a4e565b67ffffffffffffffff8111156113cd576113cc610c63565b5b6113d78254610e48565b6113e282828561131e565b600060209050601f8311600181146114155760008415611403578287015190505b61140d858261138f565b865550611475565b601f198416611423866111ff565b60005b8281101561144b57848901518255600182019150602085019450602081019050611426565b868310156114685784890151611464601f891682611371565b8355505b6001600288020188555050505b505050505050565b60006060820190506114926000830186610a3f565b81810360208301526114a48185610aa5565b90506114b36040830184610a3f565b949350505050565b60006114c6826109dc565b91507fffffffffffffffffffffffffffffffffffffffffffffffffffffffffffffffff82036114f8576114f761110a565b5b60018201905091905056fea26469706673582212202c34490933fa02827390b77739b9fadc0b2d1502970bd97f2a606ca3ad129b1264736f6c634300081c0033",
  "linkReferences": {},
  "deployedLinkReferences": {}
}